{
  "_format": "hh-sol-artifact-1",
  "contractName": "lnft",
  "sourceName": "contracts/lnft.sol",
  "abi": [
    {
      "inputs": [],
      "stateMutability": "nonpayable",
      "type": "constructor"
    },
    {
      "anonymous": false,
      "inputs": [
        {
          "indexed": true,
          "internalType": "address",
          "name": "owner",
          "type": "address"
        },
        {
          "indexed": true,
          "internalType": "address",
          "name": "approved",
          "type": "address"
        },
        {
          "indexed": true,
          "internalType": "uint256",
          "name": "tokenId",
          "type": "uint256"
        }
      ],
      "name": "Approval",
      "type": "event"
    },
    {
      "anonymous": false,
      "inputs": [
        {
          "indexed": true,
          "internalType": "address",
          "name": "owner",
          "type": "address"
        },
        {
          "indexed": true,
          "internalType": "address",
          "name": "operator",
          "type": "address"
        },
        {
          "indexed": false,
          "internalType": "bool",
          "name": "approved",
          "type": "bool"
        }
      ],
      "name": "ApprovalForAll",
      "type": "event"
    },
    {
      "anonymous": false,
      "inputs": [
        {
          "indexed": true,
          "internalType": "address",
          "name": "from",
          "type": "address"
        },
        {
          "indexed": true,
          "internalType": "address",
          "name": "to",
          "type": "address"
        },
        {
          "indexed": true,
          "internalType": "uint256",
          "name": "tokenId",
          "type": "uint256"
        }
      ],
      "name": "Transfer",
      "type": "event"
    },
    {
      "inputs": [],
      "name": "_tokenTotal",
      "outputs": [
        {
          "internalType": "uint256",
          "name": "_value",
          "type": "uint256"
        }
      ],
      "stateMutability": "view",
      "type": "function"
    },
    {
      "inputs": [
        {
          "internalType": "address",
          "name": "to",
          "type": "address"
        },
        {
          "internalType": "uint256",
          "name": "tokenId",
          "type": "uint256"
        }
      ],
      "name": "approve",
      "outputs": [],
      "stateMutability": "nonpayable",
      "type": "function"
    },
    {
      "inputs": [
        {
          "internalType": "address",
          "name": "owner",
          "type": "address"
        }
      ],
      "name": "balanceOf",
      "outputs": [
        {
          "internalType": "uint256",
          "name": "",
          "type": "uint256"
        }
      ],
      "stateMutability": "view",
      "type": "function"
    },
    {
      "inputs": [],
      "name": "collectionName",
      "outputs": [
        {
          "internalType": "string",
          "name": "",
          "type": "string"
        }
      ],
      "stateMutability": "view",
      "type": "function"
    },
    {
      "inputs": [],
      "name": "collectionSymbol",
      "outputs": [
        {
          "internalType": "string",
          "name": "",
          "type": "string"
        }
      ],
      "stateMutability": "view",
      "type": "function"
    },
    {
      "inputs": [],
      "name": "createlnft",
      "outputs": [
        {
          "internalType": "uint256",
          "name": "",
          "type": "uint256"
        }
      ],
      "stateMutability": "nonpayable",
      "type": "function"
    },
    {
      "inputs": [
        {
          "internalType": "uint256",
          "name": "tokenId",
          "type": "uint256"
        }
      ],
      "name": "getApproved",
      "outputs": [
        {
          "internalType": "address",
          "name": "",
          "type": "address"
        }
      ],
      "stateMutability": "view",
      "type": "function"
    },
    {
      "inputs": [],
      "name": "getTotalNFTsMintedSoFar",
      "outputs": [
        {
          "internalType": "uint256",
          "name": "",
          "type": "uint256"
        }
      ],
      "stateMutability": "view",
      "type": "function"
    },
    {
      "inputs": [
        {
          "internalType": "address",
          "name": "owner",
          "type": "address"
        },
        {
          "internalType": "address",
          "name": "operator",
          "type": "address"
        }
      ],
      "name": "isApprovedForAll",
      "outputs": [
        {
          "internalType": "bool",
          "name": "",
          "type": "bool"
        }
      ],
      "stateMutability": "view",
      "type": "function"
    },
    {
      "inputs": [],
      "name": "name",
      "outputs": [
        {
          "internalType": "string",
          "name": "",
          "type": "string"
        }
      ],
      "stateMutability": "view",
      "type": "function"
    },
    {
      "inputs": [
        {
          "internalType": "uint256",
          "name": "tokenId",
          "type": "uint256"
        }
      ],
      "name": "ownerOf",
      "outputs": [
        {
          "internalType": "address",
          "name": "",
          "type": "address"
        }
      ],
      "stateMutability": "view",
      "type": "function"
    },
    {
      "inputs": [
        {
          "internalType": "address",
          "name": "from",
          "type": "address"
        },
        {
          "internalType": "address",
          "name": "to",
          "type": "address"
        },
        {
          "internalType": "uint256",
          "name": "tokenId",
          "type": "uint256"
        }
      ],
      "name": "safeTransferFrom",
      "outputs": [],
      "stateMutability": "nonpayable",
      "type": "function"
    },
    {
      "inputs": [
        {
          "internalType": "address",
          "name": "from",
          "type": "address"
        },
        {
          "internalType": "address",
          "name": "to",
          "type": "address"
        },
        {
          "internalType": "uint256",
          "name": "tokenId",
          "type": "uint256"
        },
        {
          "internalType": "bytes",
          "name": "data",
          "type": "bytes"
        }
      ],
      "name": "safeTransferFrom",
      "outputs": [],
      "stateMutability": "nonpayable",
      "type": "function"
    },
    {
      "inputs": [
        {
          "internalType": "address",
          "name": "operator",
          "type": "address"
        },
        {
          "internalType": "bool",
          "name": "approved",
          "type": "bool"
        }
      ],
      "name": "setApprovalForAll",
      "outputs": [],
      "stateMutability": "nonpayable",
      "type": "function"
    },
    {
      "inputs": [
        {
          "internalType": "bytes4",
          "name": "interfaceId",
          "type": "bytes4"
        }
      ],
      "name": "supportsInterface",
      "outputs": [
        {
          "internalType": "bool",
          "name": "",
          "type": "bool"
        }
      ],
      "stateMutability": "view",
      "type": "function"
    },
    {
      "inputs": [],
      "name": "symbol",
      "outputs": [
        {
          "internalType": "string",
          "name": "",
          "type": "string"
        }
      ],
      "stateMutability": "view",
      "type": "function"
    },
    {
      "inputs": [
        {
          "internalType": "uint256",
          "name": "tokenId",
          "type": "uint256"
        }
      ],
      "name": "tokenURI",
      "outputs": [
        {
          "internalType": "string",
          "name": "",
          "type": "string"
        }
      ],
      "stateMutability": "view",
      "type": "function"
    },
    {
      "inputs": [
        {
          "internalType": "address",
          "name": "from",
          "type": "address"
        },
        {
          "internalType": "address",
          "name": "to",
          "type": "address"
        },
        {
          "internalType": "uint256",
          "name": "tokenId",
          "type": "uint256"
        }
      ],
      "name": "transferFrom",
      "outputs": [],
      "stateMutability": "nonpayable",
      "type": "function"
    }
  ],
  "bytecode": "0x608060405260405180610100016040528060d881526020016200482c60d89139600b90805190602001906200003692919062000dae565b506040518060800160405280605681526020016200490460569139600c90805190602001906200006892919062000dae565b506040518061014001604052806040518060400160405280600781526020017f63616c6c6964650000000000000000000000000000000000000000000000000081525081526020016040518060400160405280600681526020017f696e66756c61000000000000000000000000000000000000000000000000000081525081526020016040518060400160405280600881526020017f67726174756c6f7200000000000000000000000000000000000000000000000081525081526020016040518060400160405280600981526020017f6f7074696d61746573000000000000000000000000000000000000000000000081525081526020016040518060400160405280600781526020017f706172617475730000000000000000000000000000000000000000000000000081525081526020016040518060400160405280600b81526020017f7175656d61646d6f64756d00000000000000000000000000000000000000000081525081526020016040518060400160405280600681526020017f696e7661646f000000000000000000000000000000000000000000000000000081525081526020016040518060400160405280600881526020017f64696d696469756d00000000000000000000000000000000000000000000000081525081526020016040518060400160405280600981526020017f696e6461676174696f000000000000000000000000000000000000000000000081525081526020016040518060400160405280600981526020017f7065727065747575730000000000000000000000000000000000000000000000815250815250600d90600a620002d392919062000e3f565b506040518061020001604052806040518060400160405280600581526020017f617564617800000000000000000000000000000000000000000000000000000081525081526020016040518060400160405280600581526020017f637572696100000000000000000000000000000000000000000000000000000081525081526020016040518060400160405280600781526020017f6e6f6e6e6973690000000000000000000000000000000000000000000000000081525081526020016040518060400160405280600881526020017f637572696f73757300000000000000000000000000000000000000000000000081525081526020016040518060400160405280600781526020017f696e636c696e6f0000000000000000000000000000000000000000000000000081525081526020016040518060400160405280600781526020017f6d756e6974696f0000000000000000000000000000000000000000000000000081525081526020016040518060400160405280600581526020017f737570657200000000000000000000000000000000000000000000000000000081525081526020016040518060400160405280600681526020017f766573746973000000000000000000000000000000000000000000000000000081525081526020016040518060400160405280600681526020017f766f7261676f000000000000000000000000000000000000000000000000000081525081526020016040518060400160405280600881526020017f71756174696e757300000000000000000000000000000000000000000000000081525081526020016040518060400160405280600881526020017f696e76656e746f7200000000000000000000000000000000000000000000000081525081526020016040518060400160405280600881526020017f70726f746573746f00000000000000000000000000000000000000000000000081525081526020016040518060400160405280600681526020017f6170706f6e6f000000000000000000000000000000000000000000000000000081525081526020016040518060400160405280600581526020017f637569757300000000000000000000000000000000000000000000000000000081525081526020016040518060400160405280600781526020017f6465636f7275730000000000000000000000000000000000000000000000000081525081526020016040518060400160405280600681526020017f7061637475730000000000000000000000000000000000000000000000000000815250815250600e906010620006a092919062000ea6565b50604051806101e001604052806040518060400160405280600781526020017f736f6e697475730000000000000000000000000000000000000000000000000081525081526020016040518060400160405280600681526020017f636572747573000000000000000000000000000000000000000000000000000081525081526020016040518060400160405280600581526020017f617564656f00000000000000000000000000000000000000000000000000000081525081526020016040518060400160405280600981526020017f636f6e73706963696f000000000000000000000000000000000000000000000081525081526020016040518060400160405280600881526020017f646567656e65726f00000000000000000000000000000000000000000000000081525081526020016040518060400160405280600a81526020017f6c616372696d6f7375730000000000000000000000000000000000000000000081525081526020016040518060400160405280600a81526020017f696e6669726d6174696f0000000000000000000000000000000000000000000081525081526020016040518060400160405280600981526020017f6d616e737565747573000000000000000000000000000000000000000000000081525081526020016040518060400160405280600b81526020017f6f706f7274756e6974617300000000000000000000000000000000000000000081525081526020016040518060400160405280600781526020017f706563756e69610000000000000000000000000000000000000000000000000081525081526020016040518060400160405280600881526020017f70726f6c6563746f00000000000000000000000000000000000000000000000081525081526020016040518060400160405280600681526020017f726567696e61000000000000000000000000000000000000000000000000000081525081526020016040518060400160405280600781526020017f73617069656e730000000000000000000000000000000000000000000000000081525081526020016040518060400160405280600681526020017f736174757261000000000000000000000000000000000000000000000000000081525081526020016040518060400160405280600681526020017f65737572696f0000000000000000000000000000000000000000000000000000815250815250600f90600f62000a3292919062000f0d565b506040518060a001604052806040518060400160405280600781526020017f233261333234620000000000000000000000000000000000000000000000000081525081526020016040518060400160405280600781526020017f236438313135390000000000000000000000000000000000000000000000000081525081526020016040518060400160405280600781526020017f236266623163310000000000000000000000000000000000000000000000000081525081526020016040518060400160405280600781526020017f236235626563360000000000000000000000000000000000000000000000000081525081526020016040518060400160405280600781526020017f2363376462653600000000000000000000000000000000000000000000000000815250815250601090600562000b7592919062000f74565b5034801562000b8357600080fd5b506040518060400160405280600881526020017f4c6174696e4e46540000000000000000000000000000000000000000000000008152506040518060400160405280600381526020017f4c41540000000000000000000000000000000000000000000000000000000000815250816000908051906020019062000c0892919062000dae565b50806001908051906020019062000c2192919062000dae565b50505062000c3462000c7a60201b60201c565b6009908051906020019062000c4b92919062000dae565b5062000c5c62000d1460201b60201c565b600a908051906020019062000c7392919062000dae565b50620010cd565b60606000805462000c8b9062001068565b80601f016020809104026020016040519081016040528092919081815260200182805462000cb99062001068565b801562000d0a5780601f1062000cde5761010080835404028352916020019162000d0a565b820191906000526020600020905b81548152906001019060200180831162000cec57829003601f168201915b5050505050905090565b60606001805462000d259062001068565b80601f016020809104026020016040519081016040528092919081815260200182805462000d539062001068565b801562000da45780601f1062000d785761010080835404028352916020019162000da4565b820191906000526020600020905b81548152906001019060200180831162000d8657829003601f168201915b5050505050905090565b82805462000dbc9062001068565b90600052602060002090601f01602090048101928262000de0576000855562000e2c565b82601f1062000dfb57805160ff191683800117855562000e2c565b8280016001018555821562000e2c579182015b8281111562000e2b57825182559160200191906001019062000e0e565b5b50905062000e3b919062000fdb565b5090565b82805482825590600052602060002090810192821562000e93579160200282015b8281111562000e9257825182908051906020019062000e8192919062000dae565b509160200191906001019062000e60565b5b50905062000ea2919062000ffa565b5090565b82805482825590600052602060002090810192821562000efa579160200282015b8281111562000ef957825182908051906020019062000ee892919062000dae565b509160200191906001019062000ec7565b5b50905062000f09919062000ffa565b5090565b82805482825590600052602060002090810192821562000f61579160200282015b8281111562000f6057825182908051906020019062000f4f92919062000dae565b509160200191906001019062000f2e565b5b50905062000f70919062000ffa565b5090565b82805482825590600052602060002090810192821562000fc8579160200282015b8281111562000fc757825182908051906020019062000fb692919062000dae565b509160200191906001019062000f95565b5b50905062000fd7919062000ffa565b5090565b5b8082111562000ff657600081600090555060010162000fdc565b5090565b5b808211156200101e576000818162001014919062001022565b5060010162000ffb565b5090565b508054620010309062001068565b6000825580601f1062001044575062001065565b601f01602090049060005260206000209081019062001064919062000fdb565b5b50565b600060028204905060018216806200108157607f821691505b602082108114156200109857620010976200109e565b5b50919050565b7f4e487b7100000000000000000000000000000000000000000000000000000000600052602260045260246000fd5b61374f80620010dd6000396000f3fe608060405234801561001057600080fd5b50600436106101165760003560e01c80636352211e116100a2578063b88d4fde11610071578063b88d4fde146102e1578063c87b56dd146102fd578063dd37b7081461032d578063e5326ab11461034b578063e985e9c51461036957610116565b80636352211e1461024757806370a082311461027757806395d89b41146102a7578063a22cb465146102c557610116565b8063095ea7b3116100e9578063095ea7b3146101b757806323b872dd146101d35780632f39352a146101ef57806342842e0e1461020d57806346107f1c1461022957610116565b806301ffc9a71461011b578063060475901461014b57806306fdde0314610169578063081812fc14610187575b600080fd5b6101356004803603810190610130919061246d565b610399565b6040516101429190612b5a565b60405180910390f35b61015361047b565b6040516101609190612d17565b60405180910390f35b61017161048c565b60405161017e9190612b75565b60405180910390f35b6101a1600480360381019061019c91906124bf565b61051e565b6040516101ae9190612af3565b60405180910390f35b6101d160048036038101906101cc9190612431565b610564565b005b6101ed60048036038101906101e8919061232b565b61067c565b005b6101f76106dc565b6040516102049190612b75565b60405180910390f35b6102276004803603810190610222919061232b565b61076a565b005b61023161078a565b60405161023e9190612d17565b60405180910390f35b610261600480360381019061025c91906124bf565b6108b2565b60405161026e9190612af3565b60405180910390f35b610291600480360381019061028c91906122c6565b610964565b60405161029e9190612d17565b60405180910390f35b6102af610a1c565b6040516102bc9190612b75565b60405180910390f35b6102df60048036038101906102da91906123f5565b610aae565b005b6102fb60048036038101906102f6919061237a565b610ac4565b005b610317600480360381019061031291906124bf565b610b26565b6040516103249190612b75565b60405180910390f35b610335610c39565b6040516103429190612d17565b60405180910390f35b610353610c45565b6040516103609190612b75565b60405180910390f35b610383600480360381019061037e91906122ef565b610cd3565b6040516103909190612b5a565b60405180910390f35b60007f80ac58cd000000000000000000000000000000000000000000000000000000007bffffffffffffffffffffffffffffffffffffffffffffffffffffffff1916827bffffffffffffffffffffffffffffffffffffffffffffffffffffffff1916148061046457507f5b5e139f000000000000000000000000000000000000000000000000000000007bffffffffffffffffffffffffffffffffffffffffffffffffffffffff1916827bffffffffffffffffffffffffffffffffffffffffffffffffffffffff1916145b80610474575061047382610d67565b5b9050919050565b60006104876008610dd1565b905090565b60606000805461049b90612fab565b80601f01602080910402602001604051908101604052809291908181526020018280546104c790612fab565b80156105145780601f106104e957610100808354040283529160200191610514565b820191906000526020600020905b8154815290600101906020018083116104f757829003601f168201915b5050505050905090565b600061052982610ddf565b6004600083815260200190815260200160002060009054906101000a900473ffffffffffffffffffffffffffffffffffffffff169050919050565b600061056f826108b2565b90508073ffffffffffffffffffffffffffffffffffffffff168373ffffffffffffffffffffffffffffffffffffffff1614156105e0576040517f08c379a00000000000000000000000000000000000000000000000000000000081526004016105d790612cd7565b60405180910390fd5b8073ffffffffffffffffffffffffffffffffffffffff166105ff610e2a565b73ffffffffffffffffffffffffffffffffffffffff16148061062e575061062d81610628610e2a565b610cd3565b5b61066d576040517f08c379a000000000000000000000000000000000000000000000000000000000815260040161066490612c77565b60405180910390fd5b6106778383610e32565b505050565b61068d610687610e2a565b82610eeb565b6106cc576040517f08c379a00000000000000000000000000000000000000000000000000000000081526004016106c390612cf7565b60405180910390fd5b6106d7838383610f80565b505050565b600a80546106e990612fab565b80601f016020809104026020016040519081016040528092919081815260200182805461071590612fab565b80156107625780601f1061073757610100808354040283529160200191610762565b820191906000526020600020905b81548152906001019060200180831161074557829003601f168201915b505050505081565b61078583838360405180602001604052806000815250610ac4565b505050565b6000806107976007610dd1565b905060006107a4826111e7565b905060006107b183611305565b905060006107be84611423565b905060008383836040516020016107d793929190612974565b604051602081830303815290604052905060006107f386611541565b90506000600b82600c8560405160200161081094939291906129bb565b60405160208183030381529060405290506000610855846108308461165f565b604051602001610841929190612a48565b60405160208183030381529060405261165f565b905060008160405160200161086a9190612aaf565b6040516020818303038152906040529050610885338a61181d565b61088f898261183b565b61089960076118af565b6108a360086118af565b88995050505050505050505090565b6000806002600084815260200190815260200160002060009054906101000a900473ffffffffffffffffffffffffffffffffffffffff169050600073ffffffffffffffffffffffffffffffffffffffff168173ffffffffffffffffffffffffffffffffffffffff16141561095b576040517f08c379a000000000000000000000000000000000000000000000000000000000815260040161095290612cb7565b60405180910390fd5b80915050919050565b60008073ffffffffffffffffffffffffffffffffffffffff168273ffffffffffffffffffffffffffffffffffffffff1614156109d5576040517f08c379a00000000000000000000000000000000000000000000000000000000081526004016109cc90612c37565b60405180910390fd5b600360008373ffffffffffffffffffffffffffffffffffffffff1673ffffffffffffffffffffffffffffffffffffffff168152602001908152602001600020549050919050565b606060018054610a2b90612fab565b80601f0160208091040260200160405190810160405280929190818152602001828054610a5790612fab565b8015610aa45780601f10610a7957610100808354040283529160200191610aa4565b820191906000526020600020905b815481529060010190602001808311610a8757829003601f168201915b5050505050905090565b610ac0610ab9610e2a565b83836118c5565b5050565b610ad5610acf610e2a565b83610eeb565b610b14576040517f08c379a0000000000000000000000000000000000000000000000000000000008152600401610b0b90612cf7565b60405180910390fd5b610b2084848484611a32565b50505050565b6060610b3182610ddf565b6000600660008481526020019081526020016000208054610b5190612fab565b80601f0160208091040260200160405190810160405280929190818152602001828054610b7d90612fab565b8015610bca5780601f10610b9f57610100808354040283529160200191610bca565b820191906000526020600020905b815481529060010190602001808311610bad57829003601f168201915b505050505090506000610bdb611a8e565b9050600081511415610bf1578192505050610c34565b600082511115610c26578082604051602001610c0e929190612950565b60405160208183030381529060405292505050610c34565b610c2f84611aa5565b925050505b919050565b60088060000154905081565b60098054610c5290612fab565b80601f0160208091040260200160405190810160405280929190818152602001828054610c7e90612fab565b8015610ccb5780601f10610ca057610100808354040283529160200191610ccb565b820191906000526020600020905b815481529060010190602001808311610cae57829003601f168201915b505050505081565b6000600560008473ffffffffffffffffffffffffffffffffffffffff1673ffffffffffffffffffffffffffffffffffffffff16815260200190815260200160002060008373ffffffffffffffffffffffffffffffffffffffff1673ffffffffffffffffffffffffffffffffffffffff16815260200190815260200160002060009054906101000a900460ff16905092915050565b60007f01ffc9a7000000000000000000000000000000000000000000000000000000007bffffffffffffffffffffffffffffffffffffffffffffffffffffffff1916827bffffffffffffffffffffffffffffffffffffffffffffffffffffffff1916149050919050565b600081600001549050919050565b610de881611b0d565b610e27576040517f08c379a0000000000000000000000000000000000000000000000000000000008152600401610e1e90612cb7565b60405180910390fd5b50565b600033905090565b816004600083815260200190815260200160002060006101000a81548173ffffffffffffffffffffffffffffffffffffffff021916908373ffffffffffffffffffffffffffffffffffffffff160217905550808273ffffffffffffffffffffffffffffffffffffffff16610ea5836108b2565b73ffffffffffffffffffffffffffffffffffffffff167f8c5be1e5ebec7d5bd14f71427d1e84f3dd0314c0f7b2291e5b200ac8c7c3b92560405160405180910390a45050565b600080610ef7836108b2565b90508073ffffffffffffffffffffffffffffffffffffffff168473ffffffffffffffffffffffffffffffffffffffff161480610f395750610f388185610cd3565b5b80610f7757508373ffffffffffffffffffffffffffffffffffffffff16610f5f8461051e565b73ffffffffffffffffffffffffffffffffffffffff16145b91505092915050565b8273ffffffffffffffffffffffffffffffffffffffff16610fa0826108b2565b73ffffffffffffffffffffffffffffffffffffffff1614610ff6576040517f08c379a0000000000000000000000000000000000000000000000000000000008152600401610fed90612bb7565b60405180910390fd5b600073ffffffffffffffffffffffffffffffffffffffff168273ffffffffffffffffffffffffffffffffffffffff161415611066576040517f08c379a000000000000000000000000000000000000000000000000000000000815260040161105d90612bf7565b60405180910390fd5b611071838383611b79565b61107c600082610e32565b6001600360008573ffffffffffffffffffffffffffffffffffffffff1673ffffffffffffffffffffffffffffffffffffffff16815260200190815260200160002060008282546110cc9190612ec1565b925050819055506001600360008473ffffffffffffffffffffffffffffffffffffffff1673ffffffffffffffffffffffffffffffffffffffff16815260200190815260200160002060008282546111239190612de0565b92505081905550816002600083815260200190815260200160002060006101000a81548173ffffffffffffffffffffffffffffffffffffffff021916908373ffffffffffffffffffffffffffffffffffffffff160217905550808273ffffffffffffffffffffffffffffffffffffffff168473ffffffffffffffffffffffffffffffffffffffff167fddf252ad1be2c89b69c2b068fc378daa952ba7f163c4a11628f55a4df523b3ef60405160405180910390a46111e2838383611b7e565b505050565b6060600061121b6111f784611b83565b6040516020016112079190612a8d565b604051602081830303815290604052611d30565b9050600d805490508161122e9190613057565b9050600d818154811061126a577f4e487b7100000000000000000000000000000000000000000000000000000000600052603260045260246000fd5b90600052602060002001805461127f90612fab565b80601f01602080910402602001604051908101604052809291908181526020018280546112ab90612fab565b80156112f85780601f106112cd576101008083540402835291602001916112f8565b820191906000526020600020905b8154815290600101906020018083116112db57829003601f168201915b5050505050915050919050565b6060600061133961131584611b83565b6040516020016113259190612a26565b604051602081830303815290604052611d30565b9050600e805490508161134c9190613057565b9050600e8181548110611388577f4e487b7100000000000000000000000000000000000000000000000000000000600052603260045260246000fd5b90600052602060002001805461139d90612fab565b80601f01602080910402602001604051908101604052809291908181526020018280546113c990612fab565b80156114165780601f106113eb57610100808354040283529160200191611416565b820191906000526020600020905b8154815290600101906020018083116113f957829003601f168201915b5050505050915050919050565b6060600061145761143384611b83565b6040516020016114439190612a04565b604051602081830303815290604052611d30565b9050600f805490508161146a9190613057565b9050600f81815481106114a6577f4e487b7100000000000000000000000000000000000000000000000000000000600052603260045260246000fd5b9060005260206000200180546114bb90612fab565b80601f01602080910402602001604051908101604052809291908181526020018280546114e790612fab565b80156115345780601f1061150957610100808354040283529160200191611534565b820191906000526020600020905b81548152906001019060200180831161151757829003601f168201915b5050505050915050919050565b6060600061157561155184611b83565b6040516020016115619190612ad1565b604051602081830303815290604052611d30565b9050601080549050816115889190613057565b9050601081815481106115c4577f4e487b7100000000000000000000000000000000000000000000000000000000600052603260045260246000fd5b9060005260206000200180546115d990612fab565b80601f016020809104026020016040519081016040528092919081815260200182805461160590612fab565b80156116525780601f1061162757610100808354040283529160200191611652565b820191906000526020600020905b81548152906001019060200180831161163557829003601f168201915b5050505050915050919050565b606060008251905060008114156116885760405180602001604052806000815250915050611818565b600060036002836116999190612de0565b6116a39190612e36565b60046116af9190612e67565b905060006020826116c09190612de0565b67ffffffffffffffff8111156116ff577f4e487b7100000000000000000000000000000000000000000000000000000000600052604160045260246000fd5b6040519080825280601f01601f1916602001820160405280156117315781602001600182028036833780820191505090505b50905060006040518060600160405280604081526020016136da604091399050600181016020830160005b868110156117d55760038101905062ffffff818a015116603f8160121c168401518060081b905060ff603f83600c1c1686015116810190508060081b905060ff603f8360061c1686015116810190508060081b905060ff603f831686015116810190508060e01b9050808452600484019350505061175c565b5060038606600181146117ef57600281146117ff5761180a565b613d3d60f01b600283035261180a565b603d60f81b60018303525b508484525050819450505050505b919050565b611837828260405180602001604052806000815250611d63565b5050565b61184482611b0d565b611883576040517f08c379a000000000000000000000000000000000000000000000000000000000815260040161187a90612c57565b60405180910390fd5b806006600084815260200190815260200160002090805190602001906118aa929190612152565b505050565b6001816000016000828254019250508190555050565b8173ffffffffffffffffffffffffffffffffffffffff168373ffffffffffffffffffffffffffffffffffffffff161415611934576040517f08c379a000000000000000000000000000000000000000000000000000000000815260040161192b90612c17565b60405180910390fd5b80600560008573ffffffffffffffffffffffffffffffffffffffff1673ffffffffffffffffffffffffffffffffffffffff16815260200190815260200160002060008473ffffffffffffffffffffffffffffffffffffffff1673ffffffffffffffffffffffffffffffffffffffff16815260200190815260200160002060006101000a81548160ff0219169083151502179055508173ffffffffffffffffffffffffffffffffffffffff168373ffffffffffffffffffffffffffffffffffffffff167f17307eab39ab6107e8899845ad3d59bd9653f200f220920489ca2b5937696c3183604051611a259190612b5a565b60405180910390a3505050565b611a3d848484610f80565b611a4984848484611dbe565b611a88576040517f08c379a0000000000000000000000000000000000000000000000000000000008152600401611a7f90612b97565b60405180910390fd5b50505050565b606060405180602001604052806000815250905090565b6060611ab082610ddf565b6000611aba611a8e565b90506000815111611ada5760405180602001604052806000815250611b05565b80611ae484611b83565b604051602001611af5929190612950565b6040516020818303038152906040525b915050919050565b60008073ffffffffffffffffffffffffffffffffffffffff166002600084815260200190815260200160002060009054906101000a900473ffffffffffffffffffffffffffffffffffffffff1673ffffffffffffffffffffffffffffffffffffffff1614159050919050565b505050565b505050565b60606000821415611bcb576040518060400160405280600181526020017f30000000000000000000000000000000000000000000000000000000000000008152509050611d2b565b600082905060005b60008214611bfd578080611be69061300e565b915050600a82611bf69190612e36565b9150611bd3565b60008167ffffffffffffffff811115611c3f577f4e487b7100000000000000000000000000000000000000000000000000000000600052604160045260246000fd5b6040519080825280601f01601f191660200182016040528015611c715781602001600182028036833780820191505090505b5090505b60008514611d2457600182611c8a9190612ec1565b9150600a85611c999190613057565b6030611ca59190612de0565b60f81b818381518110611ce1577f4e487b7100000000000000000000000000000000000000000000000000000000600052603260045260246000fd5b60200101907effffffffffffffffffffffffffffffffffffffffffffffffffffffffffffff1916908160001a905350600a85611d1d9190612e36565b9450611c75565b8093505050505b919050565b600081604051602001611d439190612939565b6040516020818303038152906040528051906020012060001c9050919050565b611d6d8383611f55565b611d7a6000848484611dbe565b611db9576040517f08c379a0000000000000000000000000000000000000000000000000000000008152600401611db090612b97565b60405180910390fd5b505050565b6000611ddf8473ffffffffffffffffffffffffffffffffffffffff1661212f565b15611f48578373ffffffffffffffffffffffffffffffffffffffff1663150b7a02611e08610e2a565b8786866040518563ffffffff1660e01b8152600401611e2a9493929190612b0e565b602060405180830381600087803b158015611e4457600080fd5b505af1925050508015611e7557506040513d601f19601f82011682018060405250810190611e729190612496565b60015b611ef8573d8060008114611ea5576040519150601f19603f3d011682016040523d82523d6000602084013e611eaa565b606091505b50600081511415611ef0576040517f08c379a0000000000000000000000000000000000000000000000000000000008152600401611ee790612b97565b60405180910390fd5b805181602001fd5b63150b7a0260e01b7bffffffffffffffffffffffffffffffffffffffffffffffffffffffff1916817bffffffffffffffffffffffffffffffffffffffffffffffffffffffff191614915050611f4d565b600190505b949350505050565b600073ffffffffffffffffffffffffffffffffffffffff168273ffffffffffffffffffffffffffffffffffffffff161415611fc5576040517f08c379a0000000000000000000000000000000000000000000000000000000008152600401611fbc90612c97565b60405180910390fd5b611fce81611b0d565b1561200e576040517f08c379a000000000000000000000000000000000000000000000000000000000815260040161200590612bd7565b60405180910390fd5b61201a60008383611b79565b6001600360008473ffffffffffffffffffffffffffffffffffffffff1673ffffffffffffffffffffffffffffffffffffffff168152602001908152602001600020600082825461206a9190612de0565b92505081905550816002600083815260200190815260200160002060006101000a81548173ffffffffffffffffffffffffffffffffffffffff021916908373ffffffffffffffffffffffffffffffffffffffff160217905550808273ffffffffffffffffffffffffffffffffffffffff16600073ffffffffffffffffffffffffffffffffffffffff167fddf252ad1be2c89b69c2b068fc378daa952ba7f163c4a11628f55a4df523b3ef60405160405180910390a461212b60008383611b7e565b5050565b6000808273ffffffffffffffffffffffffffffffffffffffff163b119050919050565b82805461215e90612fab565b90600052602060002090601f01602090048101928261218057600085556121c7565b82601f1061219957805160ff19168380011785556121c7565b828001600101855582156121c7579182015b828111156121c65782518255916020019190600101906121ab565b5b5090506121d491906121d8565b5090565b5b808211156121f15760008160009055506001016121d9565b5090565b600061220861220384612d57565b612d32565b90508281526020810184848401111561222057600080fd5b61222b848285612f69565b509392505050565b6000813590506122428161367d565b92915050565b60008135905061225781613694565b92915050565b60008135905061226c816136ab565b92915050565b600081519050612281816136ab565b92915050565b600082601f83011261229857600080fd5b81356122a88482602086016121f5565b91505092915050565b6000813590506122c0816136c2565b92915050565b6000602082840312156122d857600080fd5b60006122e684828501612233565b91505092915050565b6000806040838503121561230257600080fd5b600061231085828601612233565b925050602061232185828601612233565b9150509250929050565b60008060006060848603121561234057600080fd5b600061234e86828701612233565b935050602061235f86828701612233565b9250506040612370868287016122b1565b9150509250925092565b6000806000806080858703121561239057600080fd5b600061239e87828801612233565b94505060206123af87828801612233565b93505060406123c0878288016122b1565b925050606085013567ffffffffffffffff8111156123dd57600080fd5b6123e987828801612287565b91505092959194509250565b6000806040838503121561240857600080fd5b600061241685828601612233565b925050602061242785828601612248565b9150509250929050565b6000806040838503121561244457600080fd5b600061245285828601612233565b9250506020612463858286016122b1565b9150509250929050565b60006020828403121561247f57600080fd5b600061248d8482850161225d565b91505092915050565b6000602082840312156124a857600080fd5b60006124b684828501612272565b91505092915050565b6000602082840312156124d157600080fd5b60006124df848285016122b1565b91505092915050565b6124f181612ef5565b82525050565b61250081612f07565b82525050565b600061251182612d9d565b61251b8185612db3565b935061252b818560208601612f78565b61253481613144565b840191505092915050565b600061254a82612da8565b6125548185612dc4565b9350612564818560208601612f78565b61256d81613144565b840191505092915050565b600061258382612da8565b61258d8185612dd5565b935061259d818560208601612f78565b80840191505092915050565b600081546125b681612fab565b6125c08186612dd5565b945060018216600081146125db57600181146125ec5761261f565b60ff1983168652818601935061261f565b6125f585612d88565b60005b83811015612617578154818901526001820191506020810190506125f8565b838801955050505b50505092915050565b6000612635606a83612dd5565b915061264082613155565b606a82019050919050565b6000612658603283612dc4565b9150612663826131f0565b604082019050919050565b600061267b602583612dc4565b91506126868261323f565b604082019050919050565b600061269e601c83612dc4565b91506126a98261328e565b602082019050919050565b60006126c1600a83612dd5565b91506126cc826132b7565b600a82019050919050565b60006126e4602483612dc4565b91506126ef826132e0565b604082019050919050565b6000612707601983612dc4565b91506127128261332f565b602082019050919050565b600061272a600b83612dd5565b915061273582613358565b600b82019050919050565b600061274d600d83612dd5565b915061275882613381565b600d82019050919050565b6000612770600183612dd5565b915061277b826133aa565b600182019050919050565b6000612793602983612dc4565b915061279e826133d3565b604082019050919050565b60006127b6602e83612dc4565b91506127c182613422565b604082019050919050565b60006127d9600283612dd5565b91506127e482613471565b600282019050919050565b60006127fc603e83612dc4565b91506128078261349a565b604082019050919050565b600061281f602083612dc4565b915061282a826134e9565b602082019050919050565b6000612842600a83612dd5565b915061284d82613512565b600a82019050919050565b6000612865601883612dc4565b91506128708261353b565b602082019050919050565b6000612888602183612dc4565b915061289382613564565b604082019050919050565b60006128ab600a83612dd5565b91506128b6826135b3565b600a82019050919050565b60006128ce601d83612dd5565b91506128d9826135dc565b601d82019050919050565b60006128f1600583612dd5565b91506128fc82613605565b600582019050919050565b6000612914602e83612dc4565b915061291f8261362e565b604082019050919050565b61293381612f5f565b82525050565b60006129458284612578565b915081905092915050565b600061295c8285612578565b91506129688284612578565b91508190509392505050565b60006129808286612578565b915061298b82612763565b91506129978285612578565b91506129a282612763565b91506129ae8284612578565b9150819050949350505050565b60006129c782876125a9565b91506129d38286612578565b91506129df82856125a9565b91506129eb8284612578565b91506129f682612740565b915081905095945050505050565b6000612a0f826126b4565b9150612a1b8284612578565b915081905092915050565b6000612a318261271d565b9150612a3d8284612578565b915081905092915050565b6000612a5382612835565b9150612a5f8285612578565b9150612a6a82612628565b9150612a768284612578565b9150612a81826127cc565b91508190509392505050565b6000612a988261289e565b9150612aa48284612578565b915081905092915050565b6000612aba826128c1565b9150612ac68284612578565b915081905092915050565b6000612adc826128e4565b9150612ae88284612578565b915081905092915050565b6000602082019050612b0860008301846124e8565b92915050565b6000608082019050612b2360008301876124e8565b612b3060208301866124e8565b612b3d604083018561292a565b8181036060830152612b4f8184612506565b905095945050505050565b6000602082019050612b6f60008301846124f7565b92915050565b60006020820190508181036000830152612b8f818461253f565b905092915050565b60006020820190508181036000830152612bb08161264b565b9050919050565b60006020820190508181036000830152612bd08161266e565b9050919050565b60006020820190508181036000830152612bf081612691565b9050919050565b60006020820190508181036000830152612c10816126d7565b9050919050565b60006020820190508181036000830152612c30816126fa565b9050919050565b60006020820190508181036000830152612c5081612786565b9050919050565b60006020820190508181036000830152612c70816127a9565b9050919050565b60006020820190508181036000830152612c90816127ef565b9050919050565b60006020820190508181036000830152612cb081612812565b9050919050565b60006020820190508181036000830152612cd081612858565b9050919050565b60006020820190508181036000830152612cf08161287b565b9050919050565b60006020820190508181036000830152612d1081612907565b9050919050565b6000602082019050612d2c600083018461292a565b92915050565b6000612d3c612d4d565b9050612d488282612fdd565b919050565b6000604051905090565b600067ffffffffffffffff821115612d7257612d71613115565b5b612d7b82613144565b9050602081019050919050565b60008190508160005260206000209050919050565b600081519050919050565b600081519050919050565b600082825260208201905092915050565b600082825260208201905092915050565b600081905092915050565b6000612deb82612f5f565b9150612df683612f5f565b9250827fffffffffffffffffffffffffffffffffffffffffffffffffffffffffffffffff03821115612e2b57612e2a613088565b5b828201905092915050565b6000612e4182612f5f565b9150612e4c83612f5f565b925082612e5c57612e5b6130b7565b5b828204905092915050565b6000612e7282612f5f565b9150612e7d83612f5f565b9250817fffffffffffffffffffffffffffffffffffffffffffffffffffffffffffffffff0483118215151615612eb657612eb5613088565b5b828202905092915050565b6000612ecc82612f5f565b9150612ed783612f5f565b925082821015612eea57612ee9613088565b5b828203905092915050565b6000612f0082612f3f565b9050919050565b60008115159050919050565b60007fffffffff0000000000000000000000000000000000000000000000000000000082169050919050565b600073ffffffffffffffffffffffffffffffffffffffff82169050919050565b6000819050919050565b82818337600083830152505050565b60005b83811015612f96578082015181840152602081019050612f7b565b83811115612fa5576000848401525b50505050565b60006002820490506001821680612fc357607f821691505b60208210811415612fd757612fd66130e6565b5b50919050565b612fe682613144565b810181811067ffffffffffffffff8211171561300557613004613115565b5b80604052505050565b600061301982612f5f565b91507fffffffffffffffffffffffffffffffffffffffffffffffffffffffffffffffff82141561304c5761304b613088565b5b600182019050919050565b600061306282612f5f565b915061306d83612f5f565b92508261307d5761307c6130b7565b5b828206905092915050565b7f4e487b7100000000000000000000000000000000000000000000000000000000600052601160045260246000fd5b7f4e487b7100000000000000000000000000000000000000000000000000000000600052601260045260246000fd5b7f4e487b7100000000000000000000000000000000000000000000000000000000600052602260045260246000fd5b7f4e487b7100000000000000000000000000000000000000000000000000000000600052604160045260246000fd5b6000601f19601f8301169050919050565b7f222c20226465736372697074696f6e223a2022556e6971756520436f6e63617460008201527f206f66204c6174696e20576f72647320746f204368616e676520796f7572204c60208201527f696665222c2022696d616765223a2022646174613a696d6167652f7376672b7860408201527f6d6c3b6261736536342c00000000000000000000000000000000000000000000606082015250565b7f4552433732313a207472616e7366657220746f206e6f6e20455243373231526560008201527f63656976657220696d706c656d656e7465720000000000000000000000000000602082015250565b7f4552433732313a207472616e736665722066726f6d20696e636f72726563742060008201527f6f776e6572000000000000000000000000000000000000000000000000000000602082015250565b7f4552433732313a20746f6b656e20616c7265616479206d696e74656400000000600082015250565b7f54484952445f574f524400000000000000000000000000000000000000000000600082015250565b7f4552433732313a207472616e7366657220746f20746865207a65726f2061646460008201527f7265737300000000000000000000000000000000000000000000000000000000602082015250565b7f4552433732313a20617070726f766520746f2063616c6c657200000000000000600082015250565b7f5345434f4e445f574f5244000000000000000000000000000000000000000000600082015250565b7f3c2f746578743e3c2f7376673e00000000000000000000000000000000000000600082015250565b7f2000000000000000000000000000000000000000000000000000000000000000600082015250565b7f4552433732313a2061646472657373207a65726f206973206e6f74206120766160008201527f6c6964206f776e65720000000000000000000000000000000000000000000000602082015250565b7f45524337323155524953746f726167653a2055524920736574206f66206e6f6e60008201527f6578697374656e7420746f6b656e000000000000000000000000000000000000602082015250565b7f227d000000000000000000000000000000000000000000000000000000000000600082015250565b7f4552433732313a20617070726f76652063616c6c6572206973206e6f7420746f60008201527f6b656e206f776e6572206e6f7220617070726f76656420666f7220616c6c0000602082015250565b7f4552433732313a206d696e7420746f20746865207a65726f2061646472657373600082015250565b7f7b226e616d65223a202200000000000000000000000000000000000000000000600082015250565b7f4552433732313a20696e76616c696420746f6b656e2049440000000000000000600082015250565b7f4552433732313a20617070726f76616c20746f2063757272656e74206f776e6560008201527f7200000000000000000000000000000000000000000000000000000000000000602082015250565b7f46495253545f574f524400000000000000000000000000000000000000000000600082015250565b7f646174613a6170706c69636174696f6e2f6a736f6e3b6261736536342c000000600082015250565b7f434f4c4f52000000000000000000000000000000000000000000000000000000600082015250565b7f4552433732313a2063616c6c6572206973206e6f7420746f6b656e206f776e6560008201527f72206e6f7220617070726f766564000000000000000000000000000000000000602082015250565b61368681612ef5565b811461369157600080fd5b50565b61369d81612f07565b81146136a857600080fd5b50565b6136b481612f13565b81146136bf57600080fd5b50565b6136cb81612f5f565b81146136d657600080fd5b5056fe4142434445464748494a4b4c4d4e4f505152535455565758595a6162636465666768696a6b6c6d6e6f707172737475767778797a303132333435363738392b2fa26469706673582212208d7f43a8c97e59fa7dcb2e4d682345ac20ee53ac2dff05888f1d49488c41ac2064736f6c634300080400333c73766720786d6c6e733d27687474703a2f2f7777772e77332e6f72672f323030302f73766727207072657365727665417370656374526174696f3d27784d696e594d696e206d656574272076696577426f783d273020302033353020333530273e3c7374796c653e2e62617365207b2066696c6c3a2077686974653b20666f6e742d66616d696c793a2073616e732d73657269663b20666f6e742d73697a653a20313870783b207d3c2f7374796c653e3c726563742077696474683d273130302527206865696768743d2731303025272066696c6c3d27272f3e3c7465787420783d273530252720793d273530252720636c6173733d27626173652720646f6d696e616e742d626173656c696e653d276d6964646c652720746578742d616e63686f723d276d6964646c65273e",
  "linkReferences": {},
  "deployedLinkReferences": {}
}